{
  "contractName": "TaskContract",
  "abi": [
    {
      "anonymous": false,
      "inputs": [
        {
          "indexed": false,
          "internalType": "address",
          "name": "recipient",
          "type": "address"
        },
        {
          "indexed": false,
          "internalType": "uint256",
          "name": "taskId",
          "type": "uint256"
        }
      ],
      "name": "AddTask",
      "type": "event"
    },
    {
      "anonymous": false,
      "inputs": [
        {
          "indexed": false,
          "internalType": "uint256",
          "name": "taskId",
          "type": "uint256"
        },
        {
          "indexed": false,
          "internalType": "bool",
          "name": "isDeleted",
          "type": "bool"
        }
      ],
      "name": "DeleteTask",
      "type": "event"
    },
    {
      "inputs": [
        {
          "internalType": "string",
          "name": "taskTest",
          "type": "string"
        },
        {
          "internalType": "bool",
          "name": "isDeleted",
          "type": "bool"
        }
      ],
      "name": "addTask",
      "outputs": [],
      "stateMutability": "nonpayable",
      "type": "function"
    },
    {
      "inputs": [],
      "name": "getTasks",
      "outputs": [
        {
          "components": [
            {
              "internalType": "uint256",
              "name": "id",
              "type": "uint256"
            },
            {
              "internalType": "string",
              "name": "taskTest",
              "type": "string"
            },
            {
              "internalType": "bool",
              "name": "isDeleted",
              "type": "bool"
            }
          ],
          "internalType": "struct TaskContract.Task[]",
          "name": "",
          "type": "tuple[]"
        }
      ],
      "stateMutability": "view",
      "type": "function"
    },
    {
      "inputs": [
        {
          "internalType": "uint256",
          "name": "taskId",
          "type": "uint256"
        },
        {
          "internalType": "bool",
          "name": "isDeleted",
          "type": "bool"
        }
      ],
      "name": "deleteTask",
      "outputs": [],
      "stateMutability": "nonpayable",
      "type": "function"
    }
  ],
  "bytecode": "0x608060405234801561000f575f80fd5b50610de48061001d5f395ff3fe608060405234801561000f575f80fd5b506004361061003f575f3560e01c806304a87e381461004357806320df458114610061578063aaba29071461007d575b5f80fd5b61004b610099565b6040516100589190610750565b60405180910390f35b61007b600480360381019061007691906108d7565b610379565b005b6100976004803603810190610092919061095b565b610491565b005b60605f808054905067ffffffffffffffff8111156100ba576100b9610789565b5b6040519080825280602002602001820160405280156100f357816020015b6100e061056b565b8152602001906001900390816100d85790505b5090505f805b5f805490508110156102c1573373ffffffffffffffffffffffffffffffffffffffff1660015f8381526020019081526020015f205f9054906101000a900473ffffffffffffffffffffffffffffffffffffffff1673ffffffffffffffffffffffffffffffffffffffff161480156101a157505f15155f828154811061018157610180610999565b5b905f5260205f2090600302016002015f9054906101000a900460ff161515145b156102ae575f81815481106101b9576101b8610999565b5b905f5260205f2090600302016040518060600160405290815f82015481526020016001820180546101e9906109f3565b80601f0160208091040260200160405190810160405280929190818152602001828054610215906109f3565b80156102605780601f1061023757610100808354040283529160200191610260565b820191905f5260205f20905b81548152906001019060200180831161024357829003601f168201915b50505050508152602001600282015f9054906101000a900460ff16151515158152505083838061028f90610a50565b9450815181106102a2576102a1610999565b5b60200260200101819052505b80806102b990610a50565b9150506100f9565b505f8167ffffffffffffffff8111156102dd576102dc610789565b5b60405190808252806020026020018201604052801561031657816020015b61030361056b565b8152602001906001900390816102fb5790505b5090505f5b8281101561036f5783818151811061033657610335610999565b5b602002602001015182828151811061035157610350610999565b5b6020026020010181905250808061036790610a50565b91505061031b565b5080935050505090565b5f808054905090505f6040518060600160405280838152602001858152602001841515815250908060018154018082558091505060019003905f5260205f2090600302015f909190919091505f820151815f015560208201518160010190816103e29190610c34565b506040820151816002015f6101000a81548160ff02191690831515021790555050503360015f8381526020019081526020015f205f6101000a81548173ffffffffffffffffffffffffffffffffffffffff021916908373ffffffffffffffffffffffffffffffffffffffff1602179055507f1f54e1ba1832d428fbd7e7792beaf62b1fc5a382c207ffd614209c1413e94fda3382604051610484929190610d51565b60405180910390a1505050565b3373ffffffffffffffffffffffffffffffffffffffff1660015f8481526020019081526020015f205f9054906101000a900473ffffffffffffffffffffffffffffffffffffffff1673ffffffffffffffffffffffffffffffffffffffff160361056757805f838154811061050857610507610999565b5b905f5260205f2090600302016002015f6101000a81548160ff0219169083151502179055507ff88a35c3d2016c409a46570b994a17b408dbc83c14a03f521512d50b85386d06828260405161055e929190610d87565b60405180910390a15b5050565b60405180606001604052805f8152602001606081526020015f151581525090565b5f81519050919050565b5f82825260208201905092915050565b5f819050602082019050919050565b5f819050919050565b6105c7816105b5565b82525050565b5f81519050919050565b5f82825260208201905092915050565b5f5b838110156106045780820151818401526020810190506105e9565b5f8484015250505050565b5f601f19601f8301169050919050565b5f610629826105cd565b61063381856105d7565b93506106438185602086016105e7565b61064c8161060f565b840191505092915050565b5f8115159050919050565b61066b81610657565b82525050565b5f606083015f8301516106865f8601826105be565b506020830151848203602086015261069e828261061f565b91505060408301516106b36040860182610662565b508091505092915050565b5f6106c98383610671565b905092915050565b5f602082019050919050565b5f6106e78261058c565b6106f18185610596565b935083602082028501610703856105a6565b805f5b8581101561073e578484038952815161071f85826106be565b945061072a836106d1565b925060208a01995050600181019050610706565b50829750879550505050505092915050565b5f6020820190508181035f83015261076881846106dd565b905092915050565b5f604051905090565b5f80fd5b5f80fd5b5f80fd5b5f80fd5b7f4e487b71000000000000000000000000000000000000000000000000000000005f52604160045260245ffd5b6107bf8261060f565b810181811067ffffffffffffffff821117156107de576107dd610789565b5b80604052505050565b5f6107f0610770565b90506107fc82826107b6565b919050565b5f67ffffffffffffffff82111561081b5761081a610789565b5b6108248261060f565b9050602081019050919050565b828183375f83830152505050565b5f61085161084c84610801565b6107e7565b90508281526020810184848401111561086d5761086c610785565b5b610878848285610831565b509392505050565b5f82601f83011261089457610893610781565b5b81356108a484826020860161083f565b91505092915050565b6108b681610657565b81146108c0575f80fd5b50565b5f813590506108d1816108ad565b92915050565b5f80604083850312156108ed576108ec610779565b5b5f83013567ffffffffffffffff81111561090a5761090961077d565b5b61091685828601610880565b9250506020610927858286016108c3565b9150509250929050565b61093a816105b5565b8114610944575f80fd5b50565b5f8135905061095581610931565b92915050565b5f806040838503121561097157610970610779565b5b5f61097e85828601610947565b925050602061098f858286016108c3565b9150509250929050565b7f4e487b71000000000000000000000000000000000000000000000000000000005f52603260045260245ffd5b7f4e487b71000000000000000000000000000000000000000000000000000000005f52602260045260245ffd5b5f6002820490506001821680610a0a57607f821691505b602082108103610a1d57610a1c6109c6565b5b50919050565b7f4e487b71000000000000000000000000000000000000000000000000000000005f52601160045260245ffd5b5f610a5a826105b5565b91507fffffffffffffffffffffffffffffffffffffffffffffffffffffffffffffffff8203610a8c57610a8b610a23565b5b600182019050919050565b5f819050815f5260205f209050919050565b5f6020601f8301049050919050565b5f82821b905092915050565b5f60088302610af37fffffffffffffffffffffffffffffffffffffffffffffffffffffffffffffffff82610ab8565b610afd8683610ab8565b95508019841693508086168417925050509392505050565b5f819050919050565b5f610b38610b33610b2e846105b5565b610b15565b6105b5565b9050919050565b5f819050919050565b610b5183610b1e565b610b65610b5d82610b3f565b848454610ac4565b825550505050565b5f90565b610b79610b6d565b610b84818484610b48565b505050565b5b81811015610ba757610b9c5f82610b71565b600181019050610b8a565b5050565b601f821115610bec57610bbd81610a97565b610bc684610aa9565b81016020851015610bd5578190505b610be9610be185610aa9565b830182610b89565b50505b505050565b5f82821c905092915050565b5f610c0c5f1984600802610bf1565b1980831691505092915050565b5f610c248383610bfd565b9150826002028217905092915050565b610c3d826105cd565b67ffffffffffffffff811115610c5657610c55610789565b5b610c6082546109f3565b610c6b828285610bab565b5f60209050601f831160018114610c9c575f8415610c8a578287015190505b610c948582610c19565b865550610cfb565b601f198416610caa86610a97565b5f5b82811015610cd157848901518255600182019150602085019450602081019050610cac565b86831015610cee5784890151610cea601f891682610bfd565b8355505b6001600288020188555050505b505050505050565b5f73ffffffffffffffffffffffffffffffffffffffff82169050919050565b5f610d2c82610d03565b9050919050565b610d3c81610d22565b82525050565b610d4b816105b5565b82525050565b5f604082019050610d645f830185610d33565b610d716020830184610d42565b9392505050565b610d8181610657565b82525050565b5f604082019050610d9a5f830185610d42565b610da76020830184610d78565b939250505056fea2646970667358221220c2e9c91d3630b076f8b32a1aee50d07a816f7c95b921f0762d5fb525a7b4916664736f6c63430008150033",
  "immutableReferences": {},
  "source": "// SPDX-License-Identifier: MIT\r\npragma solidity 0.8.21;\r\n\r\ncontract TaskContract {\r\n    event AddTask(address recipient, uint256 taskId);\r\n    event DeleteTask(uint256 taskId, bool isDeleted);\r\n\r\n    struct Task {\r\n        uint256 id;\r\n        string taskTest;\r\n        bool isDeleted;\r\n    }\r\n\r\n    Task[] private tasks;\r\n    mapping(uint256 => address) taskToOwner;\r\n\r\n    function addTask(string memory taskTest, bool isDeleted) external {\r\n        uint256 taskId = tasks.length;\r\n        tasks.push(Task(taskId, taskTest, isDeleted));\r\n        taskToOwner[taskId] = msg.sender;\r\n        emit AddTask(msg.sender, taskId);\r\n    }\r\n\r\n    function getTasks() external view returns(Task[] memory) {\r\n        Task[] memory temporary = new Task[](tasks.length);\r\n        uint256 counter = 0;\r\n        \r\n        for(uint256 i=0; i<tasks.length; i++){\r\n            if(taskToOwner[i] == msg.sender && tasks[i].isDeleted == false){\r\n                temporary[counter++] = tasks[i];\r\n            }\r\n        }\r\n\r\n        Task[] memory result = new Task[](counter);\r\n        \r\n        for(uint256 i=0; i<counter; i++){\r\n            result[i] = temporary[i];\r\n        }\r\n        return result;\r\n    }\r\n\r\n    function deleteTask(uint256 taskId, bool isDeleted) external {\r\n        if(taskToOwner[taskId] == msg.sender){\r\n            tasks[taskId].isDeleted = isDeleted;\r\n            emit DeleteTask(taskId, isDeleted);\r\n        }\r\n    }\r\n}\r\n",
  "sourcePath": "C:\\Users\\Danie\\OneDrive\\Desktop\\solidity-to-do\\backend\\contracts\\TaskContract.sol",
  "compiler": {
    "name": "solc",
    "version": "0.8.21+commit.d9974bed.Emscripten.clang"
  },
  "schemaVersion": "3.4.16",
  "updatedAt": "2024-06-18T14:10:48.174Z",
  "devdoc": {
    "kind": "dev",
    "methods": {},
    "version": 1
  },
  "userdoc": {
    "kind": "user",
    "methods": {},
    "version": 1
  }
}